:020000040800F2
:100000002059012061020008B1610008BF4C0008BE
:10001000DD600008D50B00085D8A000800000000C4
:10002000000000000000000000000000A101000826
:10003000A70E000800000000FD010008B97F0008BD
:100040007B0200087B0200087B0200087B0200089C
:100050007B0200087B0200087B0200087B0200088C
:100060007B0200087B0200087B0200087B0200087C
:100070007B0200087B0200087B0200087B0200086C
:100080007B0200087B0200087B0200087B0200085C
:100090007B0200087B0200087B0200087B0200084C
:1000A0007B0200087B0200087B0200087B0200083C
:1000B0007B0200087B0200087B0200087B0200082C
:1000C0007B0200087B0200087B0200087B0200081C
:1000D0007B0200084D8A00087B0200087B020008B2
:1000E0007B0200087B0200087B0200087B020008FC
:1000F0007B0200087B0200087B0200087B020008EC
:100100007B0200087B0200087B0200087B020008DB
:100110007B0200087B0200087D8100087B0200084A
:100120007D0D00087B0200087B0200087B020008AE
:100130007B0200087B0200087B0200087B020008AB
:100140007B0200087B0200087B0200087B0200089B
:100150007B0200087B0200088D0D00087B0200086E
:100160007B0200087B0200087B0200087B0200087B
:100170007B0200087B0200087B02000800000000F0
:100180007B0200087B020008DFF810D000F0D0FBF3
:1001900000480047558F0308AFF300802059012025
:1001A0002C4B19680868B0E8F04F80F30988BFF35A
:1001B0006F8F4FF0000080F311887047000000003F
:1001C00008480068006880F308884FF0000080F35A
:1001D000148862B661B6BFF34F8FBFF36F8F00DF35
:1001E00000BF00BF08ED00E0DFF80C00016841F43B
:1001F00070010160704700BF88ED00E0EFF30980F7
:10020000BFF36F8F134B1A681EF0100F08BF20ED5D
:10021000108A20E9F04F106009B44FF0500080F3CD
:100220001188BFF34F8FBFF36F8F42F0BDFE4FF0C9
:10023000000080F3118809BC19680868B0E8F04F25
:100240001EF0100F08BFB0EC108A80F30988BFF3CE
:100250006F8F7047EC000020EFF3058070470000BF
:100260000648804706480047FEE7FEE7FEE7FEE750
:10027000FEE7FEE7FEE7FEE7FEE7FEE74181000856
:10028000890100082DE9F05F0546002092469B4653
:1002900088460646814640241BE02846414647469C
:1002A000224600F016FA53465A46C01A914110D31E
:1002B00011461846224600F0FDF92D1A67EB010899
:1002C0004F4622460120002100F0F4F917EB000907
:1002D0004E41201EA4F10104DFDC484631462A4687
:1002E0004346BDE8F09F40EA01039B0703D009E0C5
:1002F00008C9121F08C0042AFAD203E011F8013B12
:1003000000F8013B521EF9D27047D2B201E000F86A
:10031000012B491EFBD270470022F6E710B51346A9
:100320000A4604461946FFF7F0FF204610BD10B5F7
:10033000044604E00B7800F8013B03B1491C521E4F
:10034000F8D2204610BD421C10F8011B0029FBD139
:10035000801A704710B5002200E0521C835C8C5C50
:10036000A34201D1002BF8D1D8B2E1B2401A10BD9E
:1003700030B504460020034600E05B1C934203D2E4
:10038000E05CCD5C401BF8D030BD034611F8012B7A
:1003900000F8012B002AF9D11846704730B5054600
:1003A0000020034600E05B1C934205D2EC5CC85C75
:1003B000201A01D1002CF6D130BD0022CBB2017839
:1003C000994200D10246401C0029F8D110467047DE
:1003D0002DE9FE4F81EA030404F0004421F00041BE
:1003E00000944FF0000B23F0004350EA01045ED06C
:1003F00052EA03045BD0C3F30A54C1F30A552C44F8
:10040000A4F2F3340194A0FB0254C1F3130141F4AC
:100410008011C3F3130343F4801301FB024400FB78
:10042000034E840A970A44EA815447EA8357A4FB9F
:10043000076802958D0A05FB07854FEA932C04FB9C
:100440000C542705029D4FEA065847EA1637B5EBCC
:1004500008056EEB070C870E920E47EA811742EAF9
:100460008312A7FB0201B6EB0B0164EB00042B0D1A
:1004700043EA0C335E1844EB1C50DA465146E7FB66
:100480000201C5F313044FEA0B3343EA14534FEA56
:100490000432019C43EA0603A4F10C040294009C7C
:1004A000CDE900B400F034F903B0BDE8F08F0020CE
:1004B0000146F9E72DE9F04D81EA030404F0004B11
:1004C00021F0004514464FF0000A23F0004150EAA5
:1004D000050220D054EA01021DD0C5F30A57024696
:1004E000C5F31303C1F31300C1F30A5640F480159A
:1004F00043F48013A7EB0608101BD64608F2FD381C
:1005000073EB050002D308F1010801E092185B418A
:10051000B8F1000F03DA00200146BDE8F08D00209D
:100520004FF48011064684460EE0171B73EB050757
:1005300005D3121B63EB050306434CEA010C490883
:100540004FEA300092185B4150EA0107EDD152EAC0
:10055000030012D082EA040083EA0501084305D0B3
:10056000101BAB4106D20122002306E000224FF00F
:10057000004302E06FF0010253101AEB06004CEB4F
:10058000085110EB0A0041EB0B01BDE8F04D00F003
:10059000B0B80EB5C10F80EAE0700844CA07002168
:1005A00040F233438DE80E000A460B4600F0B0F8E7
:1005B00003B000BD0EB540F2334102910021CDE9F8
:1005C00000110A460B4600F0A3F803B000BDC1F3CA
:1005D0000A5210B5C1F3130140F2FF3341F4801108
:1005E0009A4201DA002010BD40F233439A42A2F24F
:1005F000334203DC524200F06CF810BD904010BD55
:1006000000F0004230F000400AD0C10D01F56071E9
:10061000C0F3160042EA0151C20840071143704777
:10062000002001467047000030B5041E71F100043F
:1006300004DB4FF00044404264EB0101141E73F1EF
:10064000000405DB1C464FF00043524263EB0403F9
:100650008B4208BF824230BD30B5041E71F10004E8
:1006600004DB4FF00044404264EB0101141E73F1BF
:10067000000405DB1C464FF00043524263EB0403C9
:10068000994208BF904230BD30B50B46014600206C
:100690002022012409E021FA02F59D4205D303FA44
:1006A00002F5491B04FA02F52844151EA2F10102C5
:1006B000F1DC30BD202A04DB203A00FA02F10020F0
:1006C00070479140C2F1200320FA03F31943904090
:1006D0007047202A04DB203A21FA02F000217047FB
:1006E00021FA02F3D040C2F120029140084319469A
:1006F000704710B5141E73F1000408DA401C41F174
:10070000000192185B411A4301D120F0010010BD95
:100710002DE9F04D92469B4611B1B1FA81F202E00B
:10072000B0FA80F220329046FFF7C4FF04460F462D
:1007300040EA0A0041EA0B0153465A46084313D0E7
:10074000114653EA010019D0C8F140025046FFF7A4
:10075000C0FF05460E46504659464246FFF7AAFFDF
:10076000084305D0012004E020463946BDE8F08D5D
:100770000020054346EAE0762C4337430A98630598
:10078000E40AA0EB08000022FD0A44EA47540A30BC
:1007900002D500200146E9E7010510196941DDE9AC
:1007A000084500196941BDE8F04DA2E72DE9FE4F6B
:1007B000804681EA0300C00F0C46009021F0004102
:1007C00023F00045B8EB0200A94105D2404621467E
:1007D00090461C460B46024623F00040104347D08B
:1007E000270DC7F30A00C3F30A510290401A019083
:1007F00040286BDAC3F3130040F4801B0098924644
:1008000020B10023D2EB030A63EB0B0B019859468E
:10081000C0F140025046FFF74DFF06460D465046D8
:100820005946019A00F096F810EB08006141002447
:1008300087EA115284EAE7731A4340D0009A62B300
:10084000019A012A4FEA075215DC001B61EB0201F5
:100850004FF0004202EA0752CDE90042001C41F588
:10086000801132462B46FFF753FF03B0BDE8F08FEF
:1008700040462146F9E7001B61EB0201001C41F5EF
:10088000801300185B412018A2F5001747EB030105
:1008900040EAD570B6196D4111E06D084FEA360691
:1008A00045EAC0754FEA0752001B61EB0201001CCC
:1008B00041F5801149084FEA300000195141324694
:1008C0002B4603B0BDE8F04FFFF713BF009801229D
:1008D00040000023D0EB020263EBE0730098214656
:1008E0004FEAE074B8EB000061EB0401E9E783F044
:1008F00000435BE781F0004158E7C1F30A52C1F3BE
:10090000130140F2FF3341F480119A4202DA0020D1
:100910000146704740F233439A42A2F2334202DC6E
:100920005242FFF7D6BEFFF7C5BE00207047000059
:10093000064C074D06E0E06840F0010394E807002C
:1009400098471034AC42F6D3FFF722FC24EA08089B
:1009500044EA0808202A06DBCB17203A41FA02F0C5
:1009600043EAE07306E041FA02F3D040C2F120020C
:10097000914008431946704770B58C1810F8015B18
:1009800015F0070301D110F8013B2A1106D110F828
:10099000012B03E010F8016B01F8016B5B1EF9D12C
:1009A0002B0705D40023521E0DD401F8013BFAE7B2
:1009B00010F8013BCB1A921C03E013F8015B01F81D
:1009C000015B521EF9D5A142D8D3002070BD70B58D
:1009D0000546AC6B206C00F0500050BB206C40F41E
:1009E000007020642068806800F04050E8B9207EE4
:1009F000D8B92068C06A00F4700020B1206880680F
:100A000000F4806088B92068406820F020002168E8
:100A10004860206C20F480702064206C00F48050CA
:100A200018B9206C40F001002064204601F0F0FA73
:100A30000BE0206C00F0100018B1204601F0EAFA3B
:100A400003E0A06BC16C2846884770BD70B50546B1
:100A5000AC6B40202064606C40F004006064204671
:100A600001F0D8FA70BD70B50446A56B284601F0B8
:100A7000D0FA70BD55494A6822F440324A604A684B
:100A800043681A434A600268526822F4807203681D
:100A90005A6002685368026943EA022203685A6096
:100AA0000268526822F0407203685A600268526815
:100AB00083681A4303685A600268926822F40062ED
:100AC00003689A6002689268C3681A4303689A6070
:100AD0003F4B826A9A4218D00268926822F0706294
:100AE00003689A6002689268836A1A4303689A608E
:100AF0000268926822F0405203689A600268926825
:100B0000C36A1A4303689A600BE00268926822F095
:100B1000706203689A600268926822F0405203682B
:100B20009A600268926822F0020203689A60026882
:100B30009368027E43EA420203689A602022125CB4
:100B4000A2B10268526842F4006203685A60026807
:100B5000526822F4604203685A6002685368426A2D
:100B6000521E43EA423203685A6005E00268526846
:100B700022F4006203685A600268D26A22F47002AA
:100B80000368DA620268D36A828B521E43EA025219
:100B90000368DA620268926822F4007203689A605D
:100BA0000268936890F8302043EA422203689A6012
:100BB0000268926822F4806203689A60026893680F
:100BC000426943EA822203689A6070470023014029
:100BD0000100000F00BFFEE708B50021074803F041
:100BE000EFFC00200649087006A034230CA21AA1CD
:100BF0000090022020F068FE002008BDF0070020D1
:100C00008A000020E89C82E9B8A3E599A8E5889DC0
:100C1000E5A78BE58C96E5AE8CE688900000000099
:100C20002E2E5C4D79447269766572735C506572E4
:100C30006970686572616C735C6F75747075745FF0
:100C4000646576696365735C62757A7A65725C6205
:100C5000757A7A65722E630042555A5A45520000E1
:100C6000F8B505460E4600240AE005EB840000684E
:100C7000009000F008F8322039F0BEF8601C84B211
:100C8000B442F2DBF8BD01B5BDF8000030B900F0A8
:100C900067F8BDF8020039F0AFF805E0BDF80210C2
:100CA000BDF8000000F001F808BD70B505460C461F
:100CB000284600F007F8204639F09EF800F050F87A
:100CC00070BD000070B5054615B900F049F870BD5B
:100CD000642D00DA642541F28830854200DD054646
:100CE00016480068806A86B2701C1549B1FBF0F0A6
:100CF000B0FBF5F0441EB4F5803F01D34FF6FF740E
:100D000004B9012400210D4803F05AFC00BF0B4830
:100D10000068C4620948C46000BF600807490968E8
:100D2000486301200549096848610021034803F030
:100D3000C1FB01200349087000BFC8E7F00700208D
:100D400000BD01058A0000200EB5044A07CA8DE8DF
:100D5000070003216846FFF783FF0EBD907104086A
:100D600010B50021034803F02BFC00200249087055
:100D700010BD0000F00700208A00002010B50248D6
:100D800001F024FB10BD00005C06002010B50248F5
:100D900001F01CFB10BD00007C0800200146087813
:100DA00010381823B0FBF3F20848805CC865032AAA
:100DB00005D908686FF30900001D886503E008681D
:100DC0006FF309008865886D70470000944104083E
:100DD000014600208A6A8B69CBB932B1012A0DD055
:100DE000022A03D0032A10D10EE000BFCB6A03F021
:100DF0008073B3F1807F00D1012007E0CB6AB3F1AB
:100E0000C07F00D1012001E000E000BF34E08B6929
:100E1000B3F5005F1AD132B1012A07D0022A03D0FC
:100E2000032A11D10AE000BF01200EE0CB6A03F0D3
:100E30008073B3F1807F00D1012006E0CB6AB3F16B
:100E4000C07F00D1012000E000BF15E032B1012ACF
:100E500005D0022A04D0032A0CD103E000BF00BF52
:100E6000012008E0CB6A03F08073B3F1807F00D1EA
:100E7000012000E000BF00BF704730B5046824685F
:100E800024F4802405682C60046863608468402C26
:100E900004D10468A2600468E16003E00468A16012
:100EA0000468E26030BD704710B5FFF795FE08B9E1
:100EB000012000E000201349087005F08DF908B901
:100EC000012000E000200F49487005F009F908B939
:100ED000012000E000200B4988700846007838B1F6
:100EE0000846407820B10846807808B1012000E02B
:100EF0000020044624B10348007808B1FFF724FF1E
:100F0000204610BDDC00002010B52DED028B82B014
:100F1000B0EE408A1148407818B902B0BDEC028B9F
:100F200010BD0F480078012800D0F6E7B0EE480A5F
:100F300038F0D8F8044614B905F0AEF90CE00948C9
:100F40000188ADF8041080788DF80600019805F04E
:100F500019FA204605F0A8F900BFDEE7DC00002002
:100F6000DF000020E100002008B52648407800B9E5
:100F700008BD2548007800B1FAE72448007830B170
:100F8000012812D002281FD0032831D12AE00120E5
:100F90001E4908701E480188ADF8001080788DF851
:100FA0000200009805F0EEF928E0022017490870C9
:100FB0001748B0F80310ADF8001040798DF8020022
:100FC000009805F0DFF919E0032010490870104877
:100FD000C188ADF80010007A8DF80200009805F085
:100FE000D1F90BE000200949087005F055F905E03A
:100FF00000200649087005F04FF900BF00BF00BF90
:10100000B6E70000DC000020DF000020E000002048
:10101000E10000201CB5002001900848407818B17C
:1010200005F0C8F8009001E001980090BDF80010AC
:1010300008469DF8021040EA01401CBDDC0000207B
:101040000148007870470000E00000200148007867
:1010500070470000DF0000200246012A02DB032A5D
:1010600000DC09B900207047501E00EB4000044B23
:10107000184403880B80807888700120F3E7000013
:10108000E100002010B50648407838B105F004F9B9
:101090000448007810B900200349087010BD000012
:1010A000DC000020DF000020E00000200EB5114829
:1010B000006802901048BDF8081001809DF80A10E1
:1010C00081700C48001D006801900B48BDF80410A9
:1010D000A0F803109DF8061041710648083000681A
:1010E00000900548BDF80010C1809DF80210017203
:1010F0000EBD0000D0710408E100002010B50446C8
:101100000348407810B1204605F0CEF810BD00002D
:10111000DC00002001B50348407810B1009805F0CC
:1011200031F908BDDC00002038B50446214840787C
:1011300000B938BD2048007800B1FAE7012C01DB86
:10114000032C00DDF5E7012C04D0022C10D0032C79
:101150002BD11CE001201949087019480188ADF80D
:10116000001080788DF80200009805F00BF91DE062
:101170000220124908701248B0F80310ADF80010B0
:1011800040798DF80200009805F0FCF80EE003208D
:101190000A4908700A48C188ADF80010007A8DF835
:1011A0000200009805F0EEF800E000BF00BF00BFAD
:1011B000BFE70000DC000020DF000020E00000208E
:1011C000E100002038B504462348407800B938BD16
:1011D0002248047084BB2248007848B3012804D018
:1011E00002280DD0032822D116E01E480188ADF850
:1011F000001080788DF80200009805F0C3F81AE01E
:101200001848B0F80310ADF8001040798DF80200CE
:10121000009805F0B7F80EE01248C188ADF800104C
:10122000007A8DF80200009805F0ACF803E000BFEA
:1012300005F032F800BF0DE0FFE701200849087013
:1012400008480188ADF8001080788DF802000098F9
:1012500005F098F800BFBAE7DC000020DF000020AE
:10126000E0000020E100002013B50446012C01DB62
:10127000032C01DD00201CBD601E00EB400019495D
:101280000844BDF8041001809DF8061081701648CE
:101290000078C0B9012C03D11448007801280BD084
:1012A000022C03D111480078022805D0032C16D156
:1012B0000E480078032812D10D48407878B1019883
:1012C00005F060F80BE008480078012807D1012CF0
:1012D00005D10748407810B1019805F053F8012076
:1012E000C9E70000E1000020DF000020E00000204E
:1012F000DC00002072B600BFFEE7000030B587B00A
:1013000004460D461C216846FFF706F80094029536
:101310000F200190002003901020049011200590D0
:101320000020069004490B6B8A684868694600F003
:1013300005F807B030BD0000BC06002070B50446BB
:101340001D460023B5F5804F13D154F822300C48C8
:101350000340D1E9000640EA06108E6840EA062004
:101360008E8940EA06408E693043034344F82230B8
:1013700003E06FF0704044F82200002070BD0000D0
:101380000000F0CF10B503460022086853F8202073
:1013900012480240D1E901042043CC6820430C6983
:1013A00020434C6920438C692043CC6920430C6A5C
:1013B00020434C6A20438C6A2043CC6A2043CC6B88
:1013C00020430C6B204302438868082801D142F077
:1013D0004002086843F82020002010BD8000F0FF84
:1013E00030B503460024501C53F8204004F040441C
:1013F000D1E9000540EA05108D6840EA05208D8995
:1014000040EA0545088A401E45EA0055087D801ED1
:1014100045EA00608D6928430443501C43F820408E
:10142000002030BD10B504460CB9012010BD0120CC
:10143000A0706178204600F041FCF7E72DE9FF47F6
:1014400080460F4614464FF00309002624E040462C
:10145000B84705466DB912A040F2471315A221A165
:10146000CDE90004012020F02FFA002004B0BDE8EF
:10147000F0870321701C1DA24FF4A573CDE9002451
:10148000CDE902010BA217A1032020F01DFA4FF4B1
:101490007A7038F0B1FC761C032ED8DB2846E5E7DD
:1014A000E6938DE4BD9C202725732720E68890E5F0
:1014B0008A9F00002E2E5C4D7944726976657273A6
:1014C0005C5065726970686572616C735C73656E9F
:1014D000736F72735C677933305C677933302E6376
:1014E000000000004759333000000000E6938DE40F
:1014F000BD9C202725732720E5A4B1E8B4A52028AA
:10150000E5B09DE8AF952025642F256429EFBC8CBC
:10151000E7AD89E5BE85E9878DE8AF952E2E2E00D3
:101520000146202911D006DC10290CD011290BD03E
:1015300013290DD104E0212908D0232908D100E086
:1015400000BF1820704700BF00BF00BFB420F9E7FC
:10155000B420F7E710B501F0A5FA10BD7CB504463C
:101560000D460CB901207CBDA07848B125A02523EB
:1015700031A23DA10090012020F0A6F90020F2E761
:101580003BA029232CA238A1CDE90005022020F0A0
:101590009BF90020206060602570102060700120A1
:1015A000A070002060603EA244492046FFF746FF3D
:1015B00008B10120D7E742A245492046FFF73EFF88
:1015C00008B10120CFE743A246492046FFF736FF86
:1015D00008B10120C7E744A248492046FFF72EFF83
:1015E00018B10020A0700120BDE70120A07044A028
:1015F000422311A21CA10090022020F065F90020D6
:10160000B1E7000047593330E8AEBEE5A487E5B73F
:10161000B2E7BB8FE5889DE5A78BE58C96EFBC8C88
:10162000E697A0E99C80E9878DE5A48DE5889DE596
:10163000A78BE58C960000002E2E5C4D79447269D4
:10164000766572735C5065726970686572616C73FF
:101650005C73656E736F72735C677933305C677946
:1016600033302E6300000000475933300000000083
:10167000E5BC80E5A78BE5889DE5A78BE58C9647C3
:10168000593330E8AEBEE5A4872C20493243E59CAF
:10169000B0E59D803A2030782530325800000000B7
:1016A000E69FA5E8AFA2E8AEBEE5A487E59CA8E763
:1016B000BABFE78AB6E68081000000001D17000867
:1016C000E5A48DE4BD8DE8AEBEE5A4870000000072
:1016D0006D1A0008E8AEBEE5A487E594A4E98692F9
:1016E00000000000F91C0008E8AEBEE7BDAEE5B79B
:1016F000A5E4BD9CE6A8A1E5BC8F00002514000868
:1017000047593330E8AEBEE5A487E5889DE5A78B51
:10171000E58C96E68890E58A9F0000003EB5044679
:101720000CB901203EBD0125642003F0CBFA48B975
:1017300011A0B4231DA229A10090042020F0C4F818
:101740000220EFE720784100C8230122254801F05C
:1017500097FA054603F0DEFA0DB90020E2E720789B
:1017600021A1C52311A2CDE9010500911BA10120F2
:1017700020F0AAF80120D5E7E6A380E69FA5475907
:101780003330E8AEBEE5A487E59CA8E7BABFE6978C
:10179000B6E88EB7E58F96493243E680BBE7BABF1D
:1017A000E99481E5A4B1E8B4A50000002E2E5C4DBB
:1017B00079447269766572735C50657269706865A8
:1017C00072616C735C73656E736F72735C6779338F
:1017D000305C677933302E630000000047593330A6
:1017E000000000000C07002047593330E8AEBEE58A
:1017F000A487E59CA8E59CB0E59D80203078253045
:10180000325820E69CAAE5938DE5BA9420284841F9
:101810004C205374617475733A20256429000000CC
:10182000FEB504460F461546207821A14FF48A7371
:101830002AA2CDE90105009134A1012020F044F84D
:10184000642003F03FFA50B932A040F2191323A2EA
:101850002EA10090042020F037F80220FEBDC82001
:101860000090207841002B463A46354801F0E4FAD2
:10187000064603F04FFA16B1032E0DD101E0002009
:10188000ECE730A04FF4967314A220A1009004203E
:1018900020F01AF80220E1E731A040F22D130FA248
:1018A0001AA1CDE90006042020F00EF80120D5E7AA
:1018B000E4BB8E47593330E59CB0E59D80203078FD
:1018C0002530325820E8AFBBE58F9620256420E50F
:1018D000AD97E88A82E695B0E68DAE002E2E5C4D7F
:1018E00079447269766572735C5065726970686577
:1018F00072616C735C73656E736F72735C6779335E
:10190000305C677933302E63000000004759333074
:101910000000000047593330E8AFBBE58F96E695ED
:10192000B0E68DAEE697B6E88EB7E58F96493243BE
:10193000E680BBE7BABFE99481E5A4B1E8B4A500AD
:101940000C0700204759333020493243E8AFBBE54C
:101950008F96E695B0E68DAEE8B685E697B60000C0
:101960004759333020493243E8AFBBE58F96E695BF
:10197000B0E68DAEE5A4B1E8B4A52C2048414C20DA
:101980005374617475733A20256400002DE9F8439F
:1019900004460E4614B10EB1A07810B90120BDE87E
:1019A000F883607823280DDB6178204600F0B4F9D5
:1019B0008046B8F1000F01D04046F0E7FFF7CAFDBE
:1019C000606000BF6078FFF7ABFD8146484638F0A5
:1019D00013FA022269462046FFF722FF07460FB19D
:1019E0003846DCE79DF801009DF8001040EA01252B
:1019F0006078202819D006DC102815D011281FD0B7
:101A0000132829D104E021281BD0232824D100E069
:101A100000BF00EE105AB8EE400ADFED120A80EE69
:101A2000201A86ED001A19E000BF00EE105AB8EE39
:101A3000400ADFED0C0A80EE201A86ED001A0DE058
:101A400000BF00EE105AB8EE400ADFED070A80EE44
:101A5000201A86ED001A01E00120A0E700BF002057
:101A60009DE700009A99993F9A99194070B50446EC
:101A70000CB9012070BD0721204600F04DF9054644
:101A80002DB90A2038F0B8F9FFF764FD60602846E8
:101A9000F0E7000038B505466C6CA07800280DD042
:101AA0000020A070204600F01DF938B104A06B237F
:101AB0000DA21AA1009003201FF006FF012038BDDF
:101AC00047593330E4BCA0E6849FE599A8E8BF9B62
:101AD000E585A5E79DA1E79CA0E6A8A1E5BC8FE56B
:101AE000A4B1E8B4A50000002E2E5C4D79447269C3
:101AF000766572735C5065726970686572616C734B
:101B00005C73656E736F72735C677933305C677991
:101B100033305F73656E736F722E630047593330D5
:101B20005F53454E534F520000A070476C757800CC
:101B30007CB505466E6CB07808B101207CBD2321D0
:101B40003046FFF70BFD0446002C0AD006A04823C0
:101B500012A21FA1CDE9000404201FF0B5FE002051
:101B6000ECE70120EAE7000047593330E4BCA0E687
:101B7000849FE599A8E7A1ACE4BBB6E5889DE5A7FD
:101B80008BE58C96E5A4B1E8B4A52028E78AB6E6F3
:101B90008081E7A0813A2025642900002E2E5C4D2B
:101BA00079447269766572735C50657269706865B4
:101BB00072616C735C73656E736F72735C6779339B
:101BC000305C677933305F73656E736F722E6300BC
:101BD000475933305F53454E534F5200FEB50446CC
:101BE000666C02A93046FFF7D1FE05462DB99DED82
:101BF000020A84ED090A0120FEBD05A05D2310A2A2
:101C00001CA1CDE9000504201FF05EFE0020F3E7D3
:101C1000E8AFBBE58F9647593330E4BCA0E6849F1C
:101C2000E599A8E695B0E68DAEE5A4B1E8B4A520A7
:101C300028E78AB6E68081E7A0813A20256429005A
:101C40002E2E5C4D79447269766572735C506572B4
:101C50006970686572616C735C73656E736F7273C3
:101C60005C677933305C677933305F73656E736FAF
:101C7000722E6300475933305F53454E534F520025
:101C800038B54FF4FA60054B054A06A100900120D3
:101C900005F096FD0446204638BD00007C0000207B
:101CA000607104084759333020E58589E785A7E44A
:101CB000BCA0E6849FE599A80000000070B504462A
:101CC0000E460CB1A07808B9012070BD31462046FF
:101CD00000F022F805461DB96670FFF73BFC606016
:101CE0002846F2E710B504460CB9012010BD0021CA
:101CF000204600F011F8F9E770B505460DB901204E
:101D000070BD0121284600F007F8044614B90A20E6
:101D100038F072F82046F3E733B583B004469DF8F7
:101D20001010207820A2F523CDE90020029129A2ED
:101D300034A101201FF0C8FD642002F0C3FF50B998
:101D400032A0FA2323A22FA1009004201FF0BCFD93
:101D5000022005B030BDC82000902078410001234A
:101D600004AA354801F0E4F9054602F0D3FF15B1A5
:101D7000032D0DD101E00020EBE730A040F20B1362
:101D800014A220A1009004201FF09EFD0220E0E795
:101D900031A04FF486730FA21AA1CDE900050420EB
:101DA0001FF092FD0120D4E7E5909147593330E5CB
:101DB0009CB0E59D802030782530325820E58F9109
:101DC000E98081E591BDE4BBA43A2030782530322A
:101DD000580000002E2E5C4D79447269766572734E
:101DE0005C5065726970686572616C735C73656E76
:101DF000736F72735C677933305C677933302E634D
:101E000000000000475933300000000047593330CC
:101E1000E58F91E98081E591BDE4BBA4E697B6E842
:101E20008EB7E58F96493243E680BBE7BABFE994A7
:101E300081E5A4B1E8B4A5000C0700204759333070
:101E400020493243E58F91E98081E591BDE4BBA44F
:101E5000E8B685E697B6000047593330204932434B
:101E6000E58F91E98081E591BDE4BBA4E5A4B1E8EB
:101E7000B4A52C2048414C205374617475733A20EA
:101E80002564000038B502460020009000BF92F89B
:101E90003C00012801D1022038BD012082F83C001D
:101EA00000BF0868092816D91068C0680C780A3C79
:101EB00004EB44050724AC40A0431468E0600C78B0
:101EC0000A3C04EB44048868A0401468E46820439A
:101ED0001468E06013E0106800690C7804EB4405B6
:101EE0000724AC40A043146820610C7804EB440440
:101EF0008868A040146824692043146820614868F9
:101F0000072817D21068406B0C79641E04EB840517
:101F10001F24AC40A04314686063088880B20C7929
:101F2000641E04EB8404A0401468646B20431468AE
:101F3000606331E048680D2817D21068006B0C7997
:101F4000E41F04EB84051F24AC40A0431468206305
:101F5000088880B20C79E41F04EB8404A040146864
:101F6000246B20431468206316E01068C06A0C7963
:101F70000D3C04EB84051F24AC40A0431468E062D0
:101F8000088880B20C790D3C04EB8404A0401468EE
:101F9000E46A20431468E062194B1A4C1068A042AE
:101FA00006D10868122803D1586840F480005860B0
:101FB000144C1068A0421CD10868102802D0086890
:101FC000112816D1586840F400005860086810289D
:101FD0000FD10D4800680D4CB0FBF4F000EB800011
:101FE0004000009002E00098401E009000980028F9
:101FF000F9D100BF002082F83C0000BF00BF4BE7D2
:1020000000230140002001402000002040420F003A
:10201000704770477047000070B5044600250CB942
:10202000012070BD1549A06A884200D000BF206C15
:1020300030B9204600F024F80020606484F83C00A9
:10204000206C00F0100088B9206C20F4885040F01B
:10205000020020642046FEF70DFD00206064206C25
:1020600020F0020040F00100206400E0012500BFE4
:10207000002084F83C0000BF2846D2E70100000F92
:1020800010B586B00446142101A8FEF745F9284989
:102090002068884249D100BF002000902548006890
:1020A00040F48070234908600846006800F480709E
:1020B000009000BF00BF00BF002000901D481438F2
:1020C000006840F001001B491439086008460068A8
:1020D00000F00100009000BF00BF18200190032015
:1020E00002900020039001A9134800F0CBFB134895
:1020F0001349086000204860002111488160C160D8
:102100004FF48061016149004161890081610021D2
:10211000C1610162416200F079FA08B1FFF7EAF8A3
:1021200000BF0748A063846300BF06B010BD000075
:102130000020014044380240000002401064024088
:102140005C060020F8B504460D46164600200090B7
:1021500000BF94F83C00012801D10220F8BD012005
:1021600084F83C0000BF2068806800F00100A0B93E
:102170002068806840F00100216888605548006848
:102180005549B0FBF1F000EB4000009002E00098F0
:10219000401E009000980028F9D12068806800F463
:1021A0008070B0F5807F05D12068806820F4807051
:1021B000216888602068806800F0010000287ED0D7
:1021C000206C40F20161884340F4807020642068F4
:1021D000406800F4806028B1206C20F4005040F486
:1021E00080502064206C00F48050B0F5805F04D1F2
:1021F000606C20F00600606401E00020606400BFB5
:10220000002084F83C0000BF344F3548A16BC86300
:102210003448A16B08643448A16BC8646FF0220095
:10222000216808602068406840F08060216848604C
:102230002068806840F4807021688860226802F11C
:102240004C0133462A46A06B00F056FA786800F03D
:102250001F0018BB25492068884213D024492068F4
:10226000884204D1381D006800F01F0050B1214998
:10227000206888422BD11948001D006800F01F001B
:10228000102824D22068806800F04050F8B92068F7
:10229000806840F080402168886018E01349206819
:1022A000884214D12068806800F0405078B92068D6
:1022B000806840F080402168886008E0FFE7206C7B
:1022C00040F010002064606C40F001006064002069
:1022D00044E700002000002040420F00002301409E
:1022E000CF090008670A00084D0A000800200140D5
:1022F000002101400022014070B50446A56D00F0A8
:10230000D1FB064694F83500022808D0802060658D
:1023100000BF002084F8340000BF012070BD206899
:10232000006820F01600216808602068406920F0ED
:10233000800021684861206C08B9A06C28B1206831
:10234000006820F00800216808602068006820F01C
:1023500001002168086010E000F0A4FB801B052844
:102360000BD920206065032084F8350000BF0020D1
:1023700084F8340000BF0320D0E72068006800F034
:1023800001000028E8D194F85C103F208840A86044
:10239000012084F8350000BF002084F8340000BF1D
:1023A00000BFBBE7014691F83500022803D080202A
:1023B000486501207047052081F8350008680068ED
:1023C00020F001000A6810600020F3E7F8B5044629
:1023D000002000908C4800684FF41651B0FBF1F7D4
:1023E000A56D2E6894F85C1008208840304098B1A4
:1023F0002068006800F0040070B12068006820F0D8
:1024000004002168086094F85C1008208840A860E7
:10241000606D40F00100606594F85C100120884018
:10242000304068B12068406900F0800040B194F805
:102430005C1001208840A860606D40F0020060657B
:1024400094F85C1004208840304068B1206800682F
:1024500000F0020040B194F85C1004208840A860AD
:10246000606D40F00400606594F85C1010208840B6
:10247000304078B32068006800F0080050B394F84A
:102480005C1010208840A8602068006800F480205C
:1024900080B12068006800F4002028B9206CC8B121
:1024A0002046216C884715E0A06C98B12046A16CAD
:1024B00088470FE02068006800F4807028B9206821
:1024C000006820F0080021680860206C10B12046E8
:1024D000216C884794F85C10202088403040002808
:1024E00065D02068006800F0100000285FD094F8E4
:1024F0005C1020208840A86094F83500052828D179
:102500002068006820F01600216808602068406993
:1025100020F0800021684861206C08B9A06C28B1C7
:102520002068006820F008002168086094F85C10BA
:102530003F208840A860012084F8350000BF0020BB
:1025400084F8340000BF206D10B12046216D88470B
:10255000F8BD2068006800F4802080B12068006821
:1025600000F4002028B9606C10B12046616C8847E7
:102570001DE0E06BD8B12046E16B884717E020688A
:10258000006800F4807068B92068006820F01000CE
:1025900021680860012084F8350000BF002084F81D
:1025A000340000BFE06B10B12046E16B8847606DDE
:1025B00038B3606D00F00100F0B1052084F83500FB
:1025C0002068006820F001002168086000BF0098C2
:1025D000401C0090B84200D905E02068006800F077
:1025E00001000028F3D100BF012084F8350000BFAE
:1025F000002084F8340000BFE06C10B12046E16C8C
:10260000884700BFA4E70000200000202DE9F0412A
:102610000446002500F046FA074614B90120BDE83B
:10262000F081606A00B100BF022084F8350000BF6D
:10263000002084F8340000BF2068006820F001000A
:10264000216808600AE000F02DFAC01B052805D9B2
:1026500020206065032084F83500E0E720680068EA
:1026600000F001000028EED12068056821480540EF
:10267000D4E901010843E16808432169084361691D
:102680000843A1690843E1690843216A08430543F7
:10269000606A042803D1D4E90B010843054320688C
:1026A00005602068456925F00705606A0543606A92
:1026B00004280DD1A06A0543E06A48B12046FEF720
:1026C00087FB28B140206065012084F83500A6E72B
:1026D000206845612046FEF761FB064694F85C10D1
:1026E0003F208840B06000206065012084F83500FC
:1026F000002094E73F8010F02DE9F04704460D4696
:1027000016461F464FF00008D4F8589000BF94F8C2
:102710003400012802D10220BDE8F087012084F8AE
:10272000340000BF94F83500012825D1022084F838
:102730003500002060653B46324629462046FEF7BC
:102740009CFB94F85C103F208840C9F80800206882
:10275000006840F0160021680860206C28B12068ED
:10276000006840F00800216808602068006840F0B8
:1027700001002168086006E000BF002084F83400F2
:1027800000BF4FF002084046C6E7000070B504469F
:1027900000F088F906462546681C10B10448007808
:1027A000054400BF00F07EF9801BA842FAD370BD3B
:1027B0001C00002000B587B0142102A8FDF7ACFD75
:1027C0002A48006808B107B000BD01202749086009
:1027D00000BF002001902648006840F00100244915
:1027E00008600846006800F00100019000BF00BFCB
:1027F000881402900220039000200490032005908A
:102800000C20069002A91B4800F03CF84FF680709F
:1028100002900220039000200490032005900C20D9
:10282000069002A9144800F02DF84CF23370029083
:102830000220039000200490032005900C200690B5
:1028400002A90E4800F01EF84FF4805002900220BA
:10285000039000200490032005900C20069002A90C
:10286000074800F00FF800BFADE700000C000020A3
:10287000383802400014024000100240000C0240B0
:1028800000180240F8B502460B460025002400203F
:102890000021D5E0012606FA01F51E6806EA0504C6
:1028A000AC4274D11E7906F00306012E04D01E79C5
:1028B00006F00306022E13D190684F000326BE4097
:1028C000B0434F00DE68BE40304390605068012640
:1028D0008E40B0431E79C6F300168E4030435060E0
:1028E0001E7906F00306032E09D0D0684F00032698
:1028F000BE40B0434F009E68BE403043D0601E795A
:1029000006F00306022E13D1CF0802F1200656F876
:1029100027004E07F70E0F26BE40B0434F07FF0EAD
:102920001E69BE403043CF0802F1200646F827005A
:1029300010684F000326BE40B0431E7906F0030620
:102940004F00BE40304310605E6806F44036002EF3
:1029500075D000BF002600963B4E366846F4804690
:10296000394F3E603E46366806F48046009600BF0A
:1029700000BF364E8F0856F827008E07370F0F26F8
:10298000BE40B043324EB24202D1002624E056E0AF
:10299000304EB24201D101261EE02F4EB24201D18B
:1029A000022619E02D4EB24201D1032614E02C4E2E
:1029B000B24201D104260FE02A4EB24201D10526CF
:1029C0000AE0294EB24201D1062605E0274EB24266
:1029D00001D1072600E008268F073F0FBE40304395
:1029E0001A4E8F0846F82700214E3068A0435E68D3
:1029F00006F4803606B120431D4E3060361D306827
:102A0000A0435E6806F4003606B12043184E361D1A
:102A10003060361D3068A0435E6806F4801606B14B
:102A20002043134E08363060361D3068A0435E6880
:102A300006F4001606B120430D4E0C363060491CDA
:102A40001029FFF427AFF8BD443802400838014090
:102A5000000002400004024000080240000C024056
:102A6000001002400014024000180240001C024006
:102A7000003C0140024613690B400BB1012000E00D
:102A80000020704710B5426921EA020302EA0104FE
:102A900043EA0443836110BD0AB1816101E00B0484
:102AA00083617047014800687047000014000020EF
:102AB00070B504460CB9012070BD94F83D0028B9EA
:102AC000002084F83C00204600F0EAFB242084F833
:102AD0003D002068006820F001002168086020683F
:102AE000006840F40040216808602068006820F415
:102AF00000402168086000F0FDFD05465C49606803
:102B0000884206D85B48854201D2012007E00020B8
:102B100005E05948854201D2012000E0002001284B
:102B200000D1C9E75548B5FBF0F62068406820F0B1
:102B30003F003043216848604D496068884201D8B1
:102B4000701C07E04FF4967070434FF47A71B0FB3D
:102B5000F1F0401C2168096A21F03F010843216817
:102B6000086243496068884214D8681E6168490059
:102B7000B0FBF1F0401CC0F30B00042801D204208C
:102B80003DE0681E61684900B0FBF1F0401CC0F3F5
:102B90000B0034E0A06838B9681E616801EB4101A0
:102BA000B0FBF1F0401C0AE0681E616801EBC10255
:102BB00002EB0111B0FBF1F0401C40F48040C0F387
:102BC0000B0008B901201AE0A06848B9681E6168C6
:102BD00001EB4101B0FBF1F0401CC0F30B000CE035
:102BE000681E616801EBC10202EB0111B0FBF1F05C
:102BF000401CC0F30B0040F4804040F400402168CA
:102C0000C9694CF6FF72914308432168C861D4E951
:102C1000070108432168096821F0C00108432168C1
:102C20000860D4E9031008432168896848F2FF323C
:102C30009143084321688860D4E90501084321686D
:102C4000C96821F0FF0108432168C8602068006856
:102C500040F001002168086000202064202084F8F2
:102C60003D000020206384F83E0000BF24E7000000
:102C7000A086010080841E0000093D0040420F0034
:102C80002DE9F84F04460F4690461E46FFF70AFF0F
:102C900005464FF0010994F83D0020287ED1192304
:102CA000012263492046009502F08AF910B1022002
:102CB000BDE8F88F00BF94F83C00012801D1022044
:102CC000F6E7012084F83C0000BF2068006800F0AF
:102CD000010028B92068006840F001002168086000
:102CE0002068006820F4006021680860242084F8CF
:102CF0003D00002020644F48E06200BF206800686B
:102D000040F4807021680860334600224FF00111C2
:102D10002046009502F054F958B12068006800F48C
:102D20008070B0F5807F02D14FF4007020640320E2
:102D3000BEE707F0FE0021680861FFF7B3FE054615
:102D400020684069C0F3400A20684069C0F3802BC6
:102D500010E0FFF7A7FE401BB04200D816B9A02034
:102D600084F83D0020684069C0F3400A206840694B
:102D7000C0F3802B94F83D00A02805D0BAF1000FD5
:102D800002D1BBF1000FE4D0202084F83D00206880
:102D90004069C0F3400028B3206800E045E00068C7
:102DA00040F400702168086000BF00200090206897
:102DB0004069009020688069009000BF00BF19231F
:102DC00001221B492046009502F0FAF808B10120C3
:102DD0006EE7202084F83D0000BF002084F83C000E
:102DE00000BF65E72068006840F400702168086053
:102DF0006FF4806021684861192301220C49204644
:102E0000009502F0DDF808B1012051E709F1010950
:102E1000C145FFF473AF202084F83D0000BF0020BF
:102E200084F83C0000BF012042E7022040E7000098
:102E3000020010000000FFFF2DE9F8430446894618
:102E400017469846089EFFF72DFE054694F83D006C
:102E500020287DD119230122B2492046009502F095
:102E6000AFF810B10220BDE8F88300BF94F83C0031
:102E7000012801D10220F6E7012084F83C0000BFC0
:102E80002068006800F0010028B92068006840F060
:102E90000100216808602068006820F40060216853
:102EA0000860222084F83D00102084F83E000020B5
:102EB00020646762A4F82A80608D20859A48E062C9
:102EC0002B4632464946204601F050FF08B101200A
:102ED000C9E7208D88B900BF0020009020684069B4
:102EE000009020688069009000BF00BF20680068E3
:102EF00040F400702168086047E0208D012817D158
:102F00002068006820F480602168086000BF00200D
:102F1000009020684069009020688069009000BFA0
:102F200000BF2068006840F40070216808602CE051
:102F3000208D022818D12068006820F48060216864
:102F400008602068006840F400602168086000E0C4
:102F5000E6E000BF002000902068406900902068F3
:102F60008069009000BF10E02068006840F4806035
:102F70002168086000BF0020009020684069009030
:102F800020688069009000BF00BFBAE0208D032850
:102F90007ED8208D012815D12A463146204602F0E0
:102FA000B4F808B101205EE720680069616A087022
:102FB000606A401C6062208D401E2085608D401E2E
:102FC00060859EE0208D02282AD133460022574991
:102FD0002046009501F0F4FF08B1012043E7206886
:102FE000006840F400702168086020680069616A28
:102FF0000870606A401C6062208D401E2085608DD4
:10300000401E608520680069616A0870606A401C23
:103010006062208D401E2085608D401E608570E0BE
:103020003346002241492046009501F0C9FF08B10E
:10303000012018E72068006820F48060216808609B
:1030400020680069616A0870606A401C6062208DB7
:10305000401E2085608D401E608533460022334926
:103060002046009501F0ACFF08B10120FBE6206886
:10307000006840F400702168086020680069616A97
:103080000870606A401C6062208D401E208500E050
:1030900010E0608D401E608520680069616A0870DC
:1030A000606A401C6062208D401E2085608D401E3D
:1030B000608526E02A463146204602F026F808B10F
:1030C0000120D0E620680069616A0870606A401CCF
:1030D0006062208D401E2085608D401E60852068C6
:1030E0004069C0F3800060B120680069616A0870BF
:1030F000606A401C6062208D401E2085608D401EED
:103100006085208D00287FF441AF202084F83D00A9
:10311000002084F83E0000BF84F83C0000BFA2E617
:103120000220A0E6020010000000FFFF04000100E2
:103130002DE9F8430446894616461F46DDF82080EF
:10314000FFF7B0FC054694F83D0020287ED11923F6
:10315000012251492046009501F032FF10B10220B2
:10316000BDE8F88300BF94F83C00012801D102209B
:10317000F6E7012084F83C0000BF2068006800F0FA
:10318000010028B92068006840F00100216808604B
:103190002068006820F4006021680860212084F81D
:1031A0003D00102084F83E000020206466626785A0
:1031B000608D20853948E0622B46424649462046CC
:1031C00001F070FE08B10120CAE700BF00200090A6
:1031D00020684069009020688069009000BF00BFAF
:1031E00044E02A464146204601F0CFFF50B1206C12
:1031F000042805D12068006840F400702168086048
:103200000120ADE7606A007821680861606A401CAF
:103210006062608D401E6085208D401E2085206884
:103220004069C0F3800070B1208D60B1606A0078A1
:1032300021680861606A401C6062608D401E608584
:10324000208D401E20852A46414600E022E020468F
:1032500001F088FE50B1206C042805D12068006878
:1032600040F4007021680860012079E7208D002873
:10327000B7D12068006840F4007021680860202001
:1032800084F83D00002084F83E0000BF84F83C0034
:1032900000BF65E7022063E7020010000000FFFFA7
:1032A00010B586B00446142101A8FDF735F81B4976
:1032B000206888422FD100BF002000901848006885
:1032C00040F00200164908600846006800F002005D
:1032D000009000BF00BFC02001901220029000208B
:1032E0000390032004900420059001A90D48FFF7E6
:1032F000C9FA00BF0020009009481030006840F46F
:1033000000100749103108600846006800F40010FA
:10331000009000BF00BF06B010BD00000054004088
:10332000303802400004024003480068034909782D
:103330000844014908607047140000201C00002068
:1033400010B50D48006840F400700B49086008464D
:10335000006840F4806008600846006840F48070AF
:103360000860032000F0C8F80F2000F007F800F014
:103370004BF8002010BD0000003C024070B588B042
:1033800004460025002600222146362000F076F86B
:10339000362000F063F800BF002001901648006856
:1033A00040F01000144908600846006800F0100062
:1033B000019000BF00BF02A903A800F073F900F05C
:1033C00099F945000D48B5FBF0F0461E0C480D4933
:1033D000086040F2E7310B48C1604660002101619E
:1033E000816000F015FD20B9064800F08DFD08B0A1
:1033F00070BD0120FBE700004038024040420F0052
:1034000000100040DC08002008B500BF002000903C
:103410001148006840F480400F4908600846006881
:1034200000F48040009000BF00BF00BF002000906B
:10343000081F006840F08050091F086008460068B7
:1034400000F08050009000BF00BF00220F21901EAE
:1034500000F014F808BD0000443802400146084658
:10346000002809DB00F01F0301229A4043099B005A
:1034700003F1E023C3F8002100BF70472DE9F05F9E
:1034800080460D461646002705F05EFB0746394686
:103490002A46334601F00700C0F1070ABAF1040FCB
:1034A00002D94FF0040A01E0C0F1070AD14600F149
:1034B000040ABAF1070F02D24FF0000A01E0A0F1AE
:1034C000030AD4464FF0010A0AFA09FAAAF1010ADE
:1034D0000AEA020A0AFA0CFA4FF0010B0BFA0CFB8B
:1034E000ABF1010B0BEA030B4AEA0B042146404601
:1034F00005F032FBBDE8F09F00BF00F00702064B6D
:1035000019684FF6FF031940044B0B4343EA0221AD
:10351000014B196000BF70470CED00E00000FA0598
:1035200070B504460D460CB9012070BD58480068BE
:1035300000F00700A84209D255490D7008460068FE
:1035400000F00700A84201D00120EEE7207800F04B
:10355000020002281DD1207800F00400042805D1C3
:103560004C48006840F4E0504A490860207800F078
:103570000800082805D14748006840F460404549E4
:1035800008604448006820F0F000A1680843414901
:103590000860207800F00100A8B36068012807D116
:1035A0003C4808380068C0F34040B8B90120BCE787
:1035B0006068022802D06068032807D135480838BF
:1035C0000068C0F3406048B90120AEE731480838D0
:1035D0000068C0F3400008B90120A6E72D48006844
:1035E00020F00300616808432A490860FFF75AFA8F
:1035F000064609E0FFF756FA801B41F288318842FF
:1036000002D9032091E707E02248006800F00C008F
:103610006168B0EB810FEDD11D48006800F0070034
:10362000A84209D91A490D700846006800F0070041
:10363000A84201D0012078E7207800F00400042897
:1036400007D11448006820F4E050E16808431149AC
:103650000860207800F00800082808D10D480068AC
:1036600020F46040216940EAC1000A49086000F086
:1036700061F808490968C1F30311074A515CC84061
:103680000649086006480068FFF778FE00204CE70E
:10369000003C0240083802409C4104082000002001
:1036A000180000200F2202600D4A126802F0030287
:1036B00042600B4A126802F0F0028260084A126807
:1036C00002F4E052C260064A126802F46042D20874
:1036D0000261044A126802F007020A6070470000A3
:1036E00008380240003C0240014800687047000072
:1036F0002000002000B5FFF7F7FF04490968C1F377
:103700008221034A515CC84000BD000008380240D5
:10371000AC41040800B5FFF7E7FF04490968C1F3AD
:103720004231034A515CC84000BD000008380240E5
:10373000AC4104082DE9F047002400250026A146ED
:103740002548006800F00C0020B1042805D00828A6
:103750003AD105E0DFF8849039E0DFF8849036E074
:103760001D48001F006800F03F041B48001F006850
:1037700000F4800078B11A481749091F0968C1F39D
:103780008811A0FB01700146224600233846FCF751
:1037900079FD05460EE011480F49091F0968C1F37C
:1037A0008811A0FB01700146224600233846FCF731
:1037B00069FD05460848001F0068C0F30140401C31
:1037C0004600B5FBF6F902E0DFF8109000BF00BF3D
:1037D0004846BDE8F0870000083802400024F400A5
:1037E00000127A00F8B504460CB90120F8BD207823
:1037F00000F00100002874D0F948006800F00C00C7
:1038000004280DD0F648006800F00C00082813D1F9
:10381000F348001F006800F48000B0F5800F0BD162
:10382000EF4808380068C0F34040002859D060686D
:10383000002856D10120D9E700BF6068B0F5803F6D
:1038400008D1E7480838006840F48030E449083976
:1038500008601EE06068B0F5A02F0DD1E048083880
:10386000006840F48020DE49083908600846006896
:1038700040F4803008600CE0D9480838006820F433
:103880008030D749083908600846006820F4802055
:10389000086000BF606890B1FFF704F9054606E0D4
:1038A000FFF700F9401B642801D903209EE7CC48AC
:1038B00008380068C0F340400028F1D011E0FFF75D
:1038C000F1F8054606E0FFF7EDF8401B642801D942
:1038D00003208BE7C24808380068C0F34040002846
:1038E000F1D1207800F0020002285FD1BC480068C6
:1038F00000F00C0058B1BA48006800F00C0008282D
:103900001CD1B748001F006800F48000B0B9B4486B
:1039100008380068C0F3400020B1E068012801D0F9
:10392000012063E7AE480838006820F0F8002169FC
:1039300040EAC100AA490839086037E0E06800B3EE
:103940000120A8490860FFF7ADF8054606E0FFF73B
:10395000A9F8401B022801D9032047E7A0480838EE
:103960000068C0F340000028F1D09D480838006886
:1039700020F0F800216940EAC1009949083908603F
:1039800014E0002097490860FFF78CF8054606E030
:10399000FFF788F8401B022801D9032026E790484A
:1039A00008380068C0F340000028F1D1207800F00A
:1039B000080008282CD16069A8B101208A49086054
:1039C000FFF770F8054606E0FFF76CF8401B022889
:1039D00001D903200AE782486C300068C0F3400038
:1039E0000028F1D014E000207F490860FFF75AF862
:1039F000054606E0FFF756F8401B022801D90320D0
:103A0000F4E677486C300068C0F340000028F1D13C
:103A1000207800F00400042870D100277048383066
:103A2000006800F0805090B900BF002000906C4802
:103A30003830006840F080506949383108600846E5
:103A4000006800F08050009000BF00BF0127674869
:103A5000006800F48070B0B96448006840F4807079
:103A600062490860FFF71EF8054606E0FFF71AF8FE
:103A7000401B022801D90320B8E65C48006800F426
:103A800080700028F2D000BFA068012808D15448F7
:103A90006830006840F001005149683108601DE05D
:103AA000A06805280DD14E486830006840F0040039
:103AB0004B49683108600846006840F00100086022
:103AC0000CE047486830006820F001004449683144
:103AD00008600846006820F00400086000BFA06885
:103AE000A8B1FEF7DFFF054609E0FEF7DBFF401B4C
:103AF00041F28831884202D9032077E626E038482F
:103B000068300068C0F340000028EED013E0FEF7F4
:103B1000C9FF054608E0FEF7C5FF401B41F28831AA
:103B2000884201D9032061E62D4868300068C0F35F
:103B300040000028EFD1012F07D129483830006814
:103B400020F0805026493831086000BFA069002865
:103B500045D02348006800F00C0008285DD0A0691B
:103B6000022845D100201F490866FEF79BFF054645
:103B700006E0FEF797FF401B022801D9032035E637
:103B8000174808380068C0F340600028F1D1D4E934
:103B900007010843616A40EA81110122A06AC2EB71
:103BA000500041EA00412C20005D41EA00600C49D0
:103BB000091F086001200B490866FEF773FF0546E0
:103BC00006E0FEF76FFF401B022801D903200DE637
:103BD000034808380068C0F340600028F1D049E08D
:103BE0000838024000004742800E47420070004003
:103BF000002021490866FEF755FF054606E0FEF75E
:103C000051FF401B022801D90320EFE51B48006843
:103C1000C0F340600028F2D12CE0A069012800D157
:103C2000E4E51648001D0668A069012820D006F4C6
:103C30008001E06981421BD106F03F01206A814288
:103C400016D147F6C0703040616AB0EB811F0FD1CA
:103C500006F440310122A06AC2EB5000B1EB004FE4
:103C600006D106F070612C20005DB1EB006F01D031
:103C70000120BBE50020B9E50000474200380240C2
:103C800070B504460E4615460CB9012070BD94F877
:103C9000490028B9002084F84800204600F01CF8AC
:103CA00004F108012068FDF76DFB3146A268206829
:103CB000FDF796FB2946236BD4E90102FDF73EFB95
:103CC000A168206850F8210040F00100A268216836
:103CD00041F822000020D9E710B50446FEF76AFD3E
:103CE00010BD7047704710B50346002200BF93F81F
:103CF0003C00012801D1022010BD012083F83C00C6
:103D000000BF22F0FF00CC6840EA040222F44070B9
:103D10008C6840EA040222F480604C6840EA0402A5
:103D200022F400600C6840EA040222F480500C691E
:103D300040EA040222F400504C6940EA040222F4F2
:103D40008040CC6940EA04021868426400BF002049
:103D500083F83C0000BF00BFCEE7000030B502464C
:103D60000B4600BF92F83C00012801D1022030BD73
:103D7000012082F83C0000BF022082F83D0010685C
:103D800044681068816824F070041868044310685F
:103D90004460184D1068A8421BD01068B0F1804FE5
:103DA00017D0154D1068A84213D0144D1068A842C2
:103DB0000FD0134D1068A8420BD0124D1068A842C6
:103DC00007D0114D1068A84203D0104D1068A842CA
:103DD00005D121F0800158680143106881600120FD
:103DE00082F83D0000BF002082F83C0000BF00BF09
:103DF000BDE7000000000140000400400008004052
:103E0000000C004000040140004001400018004048
:103E100010B504460CB9012010BD94F83D0028B936
:103E2000002084F83C00204600F026F8022084F8A8
:103E30003D00211D206804F0A9F9012084F8460006
:103E400000BF84F83E0001213F200155402001556C
:103E50004120015500BF00BF012084F842004320EB
:103E60000155442001554520015500BF012084F82B
:103E70003D000020D0E7000008B5204A01689142CB
:103E80000FD100BF002100911D49096841F00101D7
:103E90001B4A11601146096801F00101009100BF41
:103EA0002BE00168B1F1804F11D100BF00210091DA
:103EB0001349091F096841F00101114A121F1160DD
:103EC0001146096801F00101009100BF15E00D4A9B
:103ED0000168914211D100BF002100910849091FDA
:103EE000096841F00201064A121F11601146096873
:103EF00001F00201009100BF00BF08BD00000140B9
:103F00004438024000040040014691F83D00012879
:103F100001D001207047022081F83D000868C06888
:103F200040F001000B68D8601A4B086898421BD01B
:103F30000868B0F1804F17D0174B0868984213D02B
:103F4000164B086898420FD0154B086898420BD062
:103F5000144B0868984207D0134B0868984203D066
:103F6000124B086898420CD10868806800F007027C
:103F7000062A0CD00868006840F001000B68186041
:103F800005E00868006840F001000B681860002038
:103F9000C0E70000000001400004004000080040AD
:103FA000000C0040000401400040014000180040A7
:103FB0002DE9F04104460D46002700BF94F83C006F
:103FC000012802D10220BDE8F081012084F83C00E4
:103FD00000BF022084F83D002068866826F077063E
:103FE00026F47F46206886602868502833D00CDC91
:103FF000202850D004DC00284BD0102851D149E0B3
:10400000302849D040284CD139E060282DD0702884
:1040100007D0B0F5805F03D0B0F5005F41D10DE06F
:1040200041E0D5E902136A68206804F02CF92068A1
:10403000866846F077062068866034E0D5E902138A
:104040006A68206804F01FF92068806840F48040A6
:104050002168886027E0EA686968206804F004FA4B
:104060005021206804F01AF91DE0EA6869682068A8
:1040700004F00DFA6021206804F010F913E0EA68FA
:104080006968206804F0F0F94021206804F006F91E
:1040900009E000BF00BF00BF2968206804F0FEF8F7
:1040A00001E0012700BF00BF012084F83D0000BFF0
:1040B000002084F83C0000BF384684E7704710B504
:1040C000044620680069C0F34000D8B12068C06889
:1040D000C0F34000B0B16FF0020021680861012018
:1040E00020772068806900F0030018B12046FFF7B0
:1040F000E5FF05E0204600F025F9204600F0D9F95B
:104100000020207720680069C0F38000D8B12068C3
:10411000C068C0F38000B0B16FF00400216808618E
:10412000022020772068806900F4407018B1204692
:10413000FFF7C4FF05E0204600F004F9204600F038
:10414000B8F90020207720680069C0F3C000D8B11A
:104150002068C068C0F3C000B0B16FF008002168EB
:104160000861042020772068C06900F0030018B1BE
:104170002046FFF7A3FF05E0204600F0E3F82046C5
:1041800000F097F90020207720680069C0F3001044
:10419000D8B12068C068C0F30010B0B16FF0100053
:1041A00021680861082020772068C06900F4407009
:1041B00018B12046FFF782FF05E0204600F0C2F864
:1041C000204600F076F9002020772068006900F092
:1041D000010058B12068C06800F0010030B16FF0F4
:1041E000010021680861204600F03EFA206800695D
:1041F000C0F3C01058B12068C068C0F3C01030B11F
:104200006FF08000216808612046FFF76AFD206892
:104210000069C0F3801058B12068C068C0F38010F6
:1042200030B16FF0400021680861204600F028FAA4
:1042300020680069C0F3401058B12068C068C0F31E
:10424000401030B16FF02000216808612046FFF770
:1042500049FD10BD10B586B00446142101A8FCF735
:104260005BF83449206888421DD100BF00200090CF
:104270003148006840F001002F4908600846006896
:1042800000F00100009000BF00BF881501900220DF
:1042900002900020039004900120059001A9274876
:1042A000FEF7F0FA43E02068B0F1804F1ED100BF66
:1042B000002000902048006840F001001E4908607E
:1042C0000846006800F00100009000BF00BF2620F3
:1042D000019002200290002003900220049001200F
:1042E000059001A91548FEF7CDFA20E01449206891
:1042F00088421CD100BF002000900F48006840F0A9
:1043000001000D4908600846006800F001000090B7
:1043100000BF00BF402001900220029000200390C7
:1043200002200490059001A90448FEF7ABFA06B0FC
:1043300010BD000000000140303802400000024083
:104340000004004070472DE9F04104460D46164632
:10435000002700BF94F83C00012802D10220BDE8EC
:10436000F081012084F83C0000BF36B1042E1BD040
:10437000082E31D00C2E5ED145E02946206803F08E
:1043800097FF2068806940F00800216888612068F4
:10439000806920F0040021688861206880692969AB
:1043A00008432168886148E02946206803F0B8FF87
:1043B0002068806940F40060216888612068806915
:1043C00020F480602168886120688069296940EA5A
:1043D00001202168886130E02946206803F0DEFF73
:1043E0002068C06940F008002168C8612068C06981
:1043F00020F004002168C8612068C0692969084369
:104400002168C86119E02946206804F003F8206893
:10441000C06940F400602168C8612068C06920F468
:1044200080602168C8612068C069296940EA01206C
:104430002168C86101E0012700BF00BF00BF002064
:1044400084F83C0000BF384689E710B504460CB933
:10445000012010BD94F83D0028B9002084F83C00EC
:10446000204600F025F8022084F83D00211D206838
:1044700003F08CFE012084F8460000BF84F83E0063
:1044800001213F200155402001554120015500BF29
:1044900000BF012084F8420043200155442001550B
:1044A0004520015500BF012084F83D000020D0E7E1
:1044B0007047704770B504460D4615B994F83E0034
:1044C0000BE0042D02D13F20005D06E0082D02D153
:1044D0004020005D01E04120005D012801D0012065
:1044E00070BD1DB9022084F83E000EE0042D03D1FA
:1044F00002213F20015508E0082D03D10221402070
:10450000015502E00221412001550122294620687F
:1045100003F0A8FE23492068884203D0224920687E
:10452000884201D1012000E0002028B12068406CC1
:1045300040F40040216848641A49206888421BD032
:104540002068B0F1804F17D018492068884213D0F6
:104550001749206888420FD01649206888420BD03E
:1045600011492068884207D013492068884203D047
:104570001249206888420CD12068806800F0070644
:10458000062E0CD02068006840F001002168086009
:1045900005E02068006840F0010021680860002004
:1045A0009EE70000000001400004014000040040BC
:1045B00000080040000C004000400140001800408E
:1045C00030B504460D4600222946206803F04AFE15
:1045D00023492068884203D022492068884201D1BB
:1045E000012000E0002090B100BF2068006A41F285
:1045F0001111084050B92068006A8910084028B994
:104600002068406C20F400402168486400BF00BF6F
:104610002068006A41F21111084050B92068006A10
:104620008910084028B92068006820F0010021683E
:10463000086000BF1DB9012084F83E000EE0042D83
:1046400003D101213F20015508E0082D03D10121AC
:104650004020015502E0012141200155002030BDDC
:10466000000001400004014010B5044603492068E1
:10467000884201D1FEF758FE10BD00000010004036
:104680007047704710B5044603492068884202D13C
:10469000204635F0AFFE10BD001001402DE9F84F67
:1046A0000446206805682068C668206847694FF09E
:1046B0000009CA4605F00F09B9F1000F0AD105F04B
:1046C000200038B106F0200020B1204603F0B1FFF1
:1046D000BDE8F88FB9F1000F7CD007F0010018B9E0
:1046E00006F49070002875D005F0010030B106F492
:1046F000807018B1206C40F00100206405F00400C7
:1047000030B107F0010018B1206C40F002002064C5
:1047100005F0020030B107F0010018B1206C40F044
:104720000400206405F0080048B106F0200010B92C
:1047300007F0010018B1206C40F008002064206CE4
:10474000002846D005F0200028B106F0200010B166
:10475000204603F06EFF20684069C0F3801A206C89
:1047600000F0080010B9BAF1000F2DD0204603F078
:1047700007FF2068406900F04000402820D100BFBA
:1047800000BF2168143151E8001F21F0400021686A
:10479000143141E80002002AF3D100BFA06B50B1F0
:1047A0007548A16B0865A06BFDF7FCFD88B1A06B97
:1047B000016D88470DE02046FFF764FF09E009E03E
:1047C0002046FFF75FFF04E02046FFF75BFF002075
:1047D00020647DE7206B012876D105F010000028C9
:1047E00072D006F010000028FAD000BF0020009020
:1047F00020680068009020684068009000BF00BFFB
:104800002068406900F0400040285ED1A06B00683D
:1048100040681FFA80F8B8F1000F54D0A08D4045D1
:1048200051DDA4F82E80A06BC069B0F5807F43D025
:1048300000BF00BF21680C3151E8001F21F48070D7
:1048400021680C3141E80002002AF3D100BF00BF0B
:1048500000BF2168143151E8001F21F001002168D8
:10486000143141E80002002AF3D100BF00BF00BFAD
:104870002168143151E8001F21F0400021681431F3
:1048800041E80002002AF3D100BF202084F83E0056
:104890000020206300BF00BF21680C3151E8001FD9
:1048A00021F0100021680C3141E80002002AF3D108
:1048B00000BFA06BFDF720FDA08DE28D801A81B2B4
:1048C0002046FFF7DEFE03E740E0A08DE18D401AB1
:1048D0001FFA80F8E08DC0B3B8F1000F35D000BFEB
:1048E00000BF21680C3151E8001F21F4907021684D
:1048F0000C3141E80002002AF3D100BF00BF00BF25
:104900002168143151E8001F21F0010021681431A1
:1049100041E80002002AF3D100BF202084F83E00C5
:104920000020206300BF00BF21680C3151E8001F48
:1049300021F0100021680C3141E80002002AF3D177
:1049400000BF41462046FFF79CFEC1E605F080000F
:1049500030B106F0800018B1204603F0FDFFB7E645
:1049600005F0400030B106F0400018B1204603F0D9
:104970003DFEADE600BFABE6B784000810B50446C7
:104980000CB9012010BDA06900B100E000BF94F88F
:104990003D0028B9002084F83C00204600F028F8AB
:1049A000242084F83D002068C06820F4005021686D
:1049B000C860204603F0BAFE2068006920F49040E9
:1049C000216808612068406920F02A002168486158
:1049D0002068C06840F400502168C860002020644E
:1049E000202084F83D0084F83E000020CAE7000043
:1049F00010B586B00446142101A8FBF78DFC2E49A2
:104A00002068884256D100BF002000902B480068E3
:104A100040F01000294908600846006800F01000C6
:104A2000009000BF00BF00BF002000902348143852
:104A3000006840F001002149143908600846006808
:104A400000F00100009000BF00BF4FF4C060019073
:104A5000022002900020039003200490072005907C
:104A600001A91748FDF70EFF1648174908604FF0D7
:104A7000006048604021144881600021C1604FF40B
:104A800080610161002141618161C1610162416216
:104A9000FDF7BCFD08B1FCF72DFC00BF0A486063C0
:104AA000846300BF002205212520FEF7E7FC2520B6
:104AB000FEF7D4FC06B010BD00100140443802409F
:104AC00000000240B86402407C08002070472DE9D5
:104AD000F84F04460E46174699464FF0000A94F8E0
:104AE0003D0020285AD106B117B90120BDE8F88F42
:104AF00000BF94F83C00012801D10220F6E7012014
:104B000084F83C0000BF00202064212084F83D0090
:104B1000FDF7C8FF8246A784E784A068B0F5805FF0
:104B200004D1206910B90025B04602E035464FF0A7
:104B3000000800BF002084F83C0000BF1BE0534683
:104B4000002280212046CDF8009003F035FF08B107
:104B50000320CBE745B9B8F80000C0F3080021688E
:104B6000486008F1020803E02878216848606D1C5D
:104B7000E08C401EE084E08C0028E0D15346002207
:104B800040212046CDF8009003F016FF08B1032025
:104B9000ACE7202084F83D000020A7E70220A5E72D
:104BA000F7B50446154694F83D00202846D10198F3
:104BB00000B10DB90120FEBD00BF94F83C000128F2
:104BC00001D10220F7E7012084F83C0000BF0198E2
:104BD0002062A584E58400202064212084F83D0023
:104BE0001748616BC8631748616B08641648616BAE
:104BF000C8640020616B086501AE23681A1D316826
:104C00002B46606BFDF778FD6FF04000216808606F
:104C100000BF002084F83C0000BF00BF00BF216837
:104C2000143151E8001F41F080002168143141E83F
:104C30000002002AF3D100BF0020BCE70220BAE73F
:104C40001B85000873850008CB84000810B5034657
:104C500093F83D00202823D101B10AB9012010BDED
:104C600000BF93F83C00012801D10220F7E70120A2
:104C700083F83C0000BF19629A84DA84002018642B
:104C8000212083F83D0000BF002083F83C0000BFD6
:104C90001868C06840F080001C68E0600020DEE713
:104CA0000220DCE710B5044603492068884202D19F
:104CB000204635F0C1FB10BD00100140704700BF19
:104CC000FEE7000010B504460748006808B9002058
:104CD00010BD21460448006835F0D4F808B9012019
:104CE000F6E70020F4E700002400002010B5074894
:104CF000006820B9064835F090F804490860034878
:104D0000006808B1012010BD0020FCE7240000204D
:104D1000B441040810B50448006818B1024800689E
:104D200035F088F810BD0000240000200146086816
:104D30004069C0F38020B0B16FF480600A685061B0
:104D400000200863202081F83D00002081F83E000B
:104D5000086C40F00400086400BF002081F83C00AB
:104D600000BF012070470020FCE700002DE9F84358
:104D700004460D4690461E46E76A2068006840F4E7
:104D8000806021680860082F04D0012F02D017F539
:104D9000803F06D12068006840F480702168086078
:104DA00008E0206B112805D12068006840F480706D
:104DB00021680860434600224FF00111204600960A
:104DC00000F0FEF860B12068006800F48070B0F573
:104DD000807F02D14FF4007020640320BDE8F88387
:104DE0002069B0F5804F05D1E8B240F0010021689C
:104DF000086149E005F44070F02141EAE0102168C3
:104E00000861334642462649204600F01CF908B1A5
:104E10000120E3E7E8B221680861334642462049B1
:104E2000891F204600F00FF908B10120D6E700BF26
:104E30000020009020684069009020688069009000
:104E400000BF00BF2068006840F4807021680860DF
:104E5000434600224FF001112046009600F0B0F8C2
:104E600058B12068006800F48070B0F5807F02D1EE
:104E70004FF4007020640320B0E705F44070F12186
:104E800041EAE01021680861334642460449891F1F
:104E9000204600F0D8F808B101209FE700209DE7E8
:104EA000080001002DE9F84304460D4617469846D0
:104EB000E66A082E04D0012E02D016F5803F06D1F6
:104EC0002068006840F480702168086008E0206B6A
:104ED000122805D12068006840F4807021680860BD
:104EE0003B4600224FF001112046CDF8008000F033
:104EF00067F860B12068006800F48070B0F5807FCA
:104F000002D14FF4007020640320BDE8F8832069CB
:104F1000B0F5804F04D105F0FE002168086112E071
:104F200005F44070F02141EAE01021680861434631
:104F30003A460B49204600F086F808B10120E4E724
:104F4000E8B22168086143463A460549891F204670
:104F500000F079F808B10120D7E70020D5E700007C
:104F60000800010070B504460D46164620E02046B4
:104F7000FFF7DCFE08B1012070BD681CC0B1FDF771
:104F800091FD801BA84200D895B900202063202005
:104F900084F83D00002084F83E00206C40F02000A2
:104FA000206400BF002084F83C0000BF0120E3E73C
:104FB00020684069C0F380000028D8D00020DBE7DB
:104FC0002DE9F04104460D4617461E46DDF81880CF
:104FD0001CE0701CD0B1FDF765FDA0EB0800B042ED
:104FE00000D89EB900202063202084F83D000020D6
:104FF00084F83E00206C40F02000206400BF0020B8
:1050000084F83C0000BF0120BDE8F081C5F30740F3
:1050100001280AD120684069A9B20840A9B2884293
:1050200001D101200BE0002009E020688069A9B2CD
:105030000840A9B2884201D1012000E00020B84216
:10504000C7D00020E0E72DE9F04104460D461646A2
:105050001F463DE020684069C0F38020E8B1206829
:10506000006840F40070216808606FF48060216877
:10507000486100202063202084F83D00002084F84F
:105080003E00206C40F00400206400BF002084F843
:105090003C0000BF0120BDE8F081701CC0B1FDF7ED
:1050A00001FDC01BB04200D896B90020206320202B
:1050B00084F83D00002084F83E00206C40F0200081
:1050C000206400BF002084F83C0000BF0120E2E71C
:1050D000C5F3074001280AD120684069A9B20840F9
:1050E000A9B2884201D101200BE0002009E020682C
:1050F0008069A9B20840A9B2884201D1012000E02C
:1051000000200028A6D00020C5E770B504460D4653
:10511000164632E020684069C0F30010A0B16FF07D
:1051200010002168486100202063202084F83D00A1
:10513000002084F83E00206C206400BF002084F82A
:105140003C0000BF012070BDFDF7ACFC801BA842F5
:1051500000D895B900202063202084F83D0000206D
:1051600084F83E00206C40F02000206400BF002046
:1051700084F83C0000BF0120E5E720684069C0F3E7
:1051800080100028C6D00020DDE770B504460D462B
:10519000164620E02046FFF7C9FD08B1012070BD8A
:1051A000681CC0B1FDF77EFC801BA84200D895B9F1
:1051B00000202063202084F83D00002084F83E0079
:1051C000206C40F02000206400BF002084F83C00E8
:1051D00000BF0120E3E720684069C0F3C010002849
:1051E000D8D00020DBE7000030B52DED048B85B072
:1051F000044624B9012005B0BDEC048B30BD39A0B4
:105200004C2347A251A1009002201CF05DFB9FEDB2
:10521000508A00251EE000F0E5FAB0EE409A38EE24
:10522000090AB0EE408A322034F0E6FD681C0A21FB
:1052300090FBF1F201FB120058B93221681C45A223
:105240005723CDE90020029135A240A101201CF096
:105250003BFB6D1C322DDEDB9FED430AC8EE008A5E
:105260009FED420AC8EE800AC4ED000A94ED000AE0
:10527000B5EEC00AF1EE10FA08D994ED000ADFEDA0
:105280003C0AB4EEE00AF1EE10FA14DD94ED000AE7
:1052900010EE101A0846FBF7B3F941EC190B8DED2F
:1052A000029B34A05F231EA228A1009004201CF0C2
:1052B0000BFB01209FE70120607194ED000A10EEC6
:1052C000101A0846FBF79CF941EC190B8DED029B77
:1052D00032A0642312A21DA1009002201CF0F4FA57
:1052E000002088E7E5BC80E5A78BE6A0A1E58786DE
:1052F0004D512D32E4BCA0E6849FE599A82028E812
:10530000AFB7E7A1AEE4BF9DE59CA8E6B885E6B4DB
:1053100081E7A9BAE6B094E4B8AD292E2E2E00009C
:105320002E2E5C4D79447269766572735C5065729D
:105330006970686572616C735C73656E736F7273AC
:105340005C6D71325C6D71322E6300004D51320024
:1053500000000000E6A0A1E58786E8BF9BE5BAA6AD
:105360003A2025642F25640000004842AE471D41C5
:105370000000C8424D512D32E6A0A1E58786E5A484
:10538000B1E8B4A5EFBC8C5230E580BCE5BC82E549
:10539000B8B83A20252E3266000000004D512D325B
:1053A000E4BCA0E6849FE599A8E6A0A1E58786E590
:1053B000AE8CE688902C205230203D20252E32667F
:1053C000206BCEA9000000002DE9FF4780460F4664
:1053D00014464FF00309002624E04046B84705462E
:1053E0006DB912A040F21D1315A220A1CDE9000451
:1053F00001201CF069FA002004B0BDE8F087032109
:10540000701C1BA24FF49073CDE90024CDE902017A
:105410000BA216A103201CF057FA4FF47A7034F057
:10542000EBFC761C032ED8DB2846E5E7E6938DE4FB
:10543000BD9C202725732720E68890E58A9F0000E1
:105440002E2E5C4D79447269766572735C5065727C
:105450006970686572616C735C73656E736F72738B
:105460005C6D71325C6D71322E6300004D51320003
:10547000E6938DE4BD9C202725732720E5A4B1E8A1
:10548000B4A52028E5B09DE8AF952025642F2564BC
:1054900029EFBC8CE7AD89E5BE85E9878DE8AF953E
:1054A0002E2E2E0010B5FDF7FDFA10BD10B52DED16
:1054B000028B84B0044624B9012004B0BDEC028BF9
:1054C00010BD207948B122A02C232EA238A1009033
:1054D00001201CF0F9F90020EFE736A0302329A2C3
:1054E00033A1009002201CF0EFF9002020606060E2
:1054F000A0609FED370A84ED000A20716071A06002
:1055000034A238492046FFF75FFF48B136A03B235D
:105510001CA227A1009004201CF0D6F90120CCE7A2
:105520000120207194ED000A10EE101A0846FBF7D6
:1055300067F841EC180B8DED028B32A0402311A2CD
:105540001BA1009002201CF0BFF90020B5E700006D
:105550004D512D32E8AEBEE5A487E5B7B2E7BB8F6B
:10556000E5889DE5A78BE58C96EFBC8CE697A0E9D6
:105570009C80E9878DE5A48DE5889DE5A78BE58C6A
:10558000960000002E2E5C4D794472697665727328
:105590005C5065726970686572616C735C73656E8E
:1055A000736F72735C6D71325C6D71322E630000CB
:1055B0004D513200E5BC80E5A78BE5889DE5A78BC2
:1055C000E58C964D512D32E8AEBEE5A48700000073
:1055D00000000000E6A0A1E58786E4BCA0E6849F69
:1055E000E599A800E95100084D512D32E4BCA0E630
:1055F000849FE599A8E6A0A1E58786E5A4B1E8B473
:10560000A50000004D512D32E8AEBEE5A487E58827
:105610009DE5A78BE58C96E68890E58A9F2C205225
:1056200030203D20252E3266206BCEA900000000E0
:1056300070B52DED0A8B86B004460D4614B10DB140
:10564000207920B9012006B0BDEC0A8B70BD6079CD
:1056500048B935A072233EA248A1009003201CF057
:1056600033F90220EFE7DFED468A00260BE000F079
:10567000B9F830EE280AF0EE408A042E02DA322021
:1056800034F0BAFB761C052EF1DBB1EE040A88EE8D
:10569000809A94ED000AC9EE009ADFED3A0AB0EE66
:1056A000690A03F06DFADFED380A20EE208AB5EEC4
:1056B000C08AF1EE10FA03D29FED310AB0EE408AB3
:1056C0009FED320AB4EEC08AF1EE10FA03DD9FEDD1
:1056D0002F0AB0EE408ABDEEC80A85ED000A19EE29
:1056E000900AFAF78DFF41EC1A0B94ED000A10EEC8
:1056F000101A0846FAF784FF41EC1B0B19EE100A4A
:10570000FAF77EFF41EC1C0B286804908DED02AB8C
:105710008DED00BB53EC1C2B1DA003F0A1F9FFF78E
:10572000C1FEA06000208EE74D512D32E4BCA0E602
:10573000849FE599A8E69CAAE6A0A1E58786EFBC30
:105740008CE8BF94E59B9EE99499E8AFAF00000018
:105750002E2E5C4D79447269766572735C50657269
:105760006970686572616C735C73656E736F727378
:105770005C6D71325C6D71322E6300004D513200F0
:10578000000000006ABC04C09A79194400401C461D
:105790004D513220526561642050504D3A20525391
:1057A0003D252E3266206BCEA92C2052303D252E71
:1057B0003266206BCEA92C20526174696F3D252E74
:1057C00032662C2050504D3D25640A00014609B92F
:1057D000012070470248008808800020F9E7000097
:1057E0000000002008B56846FFF7F0FF20B9BDF8BB
:1057F000000000F007F808BD9FED010AFBE700007C
:105800000000000010B99FED1E0A704700EE100A5C
:10581000B8EE400A9FED1B2AC0EE021A9FED1A0A4D
:1058200021EE801A9FED190AB4EEC01AF1EE10FABB
:1058300002D89FED130AE8E7DFED131A81EE810A23
:10584000F7EE001A30EE610AF7EE001A60EE210A58
:10585000F5EEC00AF1EE10FA03D29FED090AF0EE60
:10586000400A9FED0B0AF4EEC00AF1EE10FA03DDD8
:105870009FED070AF0EE400AB0EE600AC5E70000AF
:105880000000000000F07F45333353406F12833A2D
:1058900000007A4438B50446656C287948B1002088
:1058A000287105A067230CA218A1009002201CF00B
:1058B0000BF8012038BD00004D512D32E4BCA0E6AC
:1058C000849FE599A8E58F8DE5889DE5A78BE58CFC
:1058D00096E5AE8CE68890002E2E5C4D7944726978
:1058E000766572735C5065726970686572616C731D
:1058F0005C73656E736F72735C6D71325C6D713267
:105900005F73656E736F722E630000004D51325FDE
:1059100053454E534F52000000A0704750504D0069
:105920007CB505466E6C307908B101207CBD3046EF
:10593000FFF7BCFD0446002C0AD006A0452312A2A6
:105940001EA1CDE9000404201BF0BEFF0020EDE7FE
:105950000120EBE74D512D32E4BCA0E6849FE59990
:10596000A8E7A1ACE4BBB6E5889DE5A78BE58C96DE
:10597000E5A4B1E8B4A52028E78AB6E68081E7A0CF
:10598000813A2025642900002E2E5C4D79447269ED
:10599000766572735C5065726970686572616C736C
:1059A0005C73656E736F72735C6D71325C6D7132B6
:1059B0005F73656E736F722E630000004D51325F2E
:1059C00053454E534F520000FEB50446666C02A983
:1059D0003046FFF72DFE05461DB902986062012092
:1059E000FEBD05A05A2310A21CA1CDE9000504208C
:1059F0001BF06AFF0020F3E7E8AFBBE58F964D513F
:105A00002D32E4BCA0E6849FE599A8E695B0E68D2A
:105A1000AEE5A4B1E8B4A52028E78AB6E68081E720
:105A2000A0813A20256429002E2E5C4D79447269AC
:105A3000766572735C5065726970686572616C73CB
:105A40005C73656E736F72735C6D71325C6D713215
:105A50005F73656E736F722E630000004D51325F8D
:105A600053454E534F52000038B54FF4FA60054B82
:105A7000054A06A10090032001F0A2FE044620463C
:105A800038BD000084090020707104084D512D328A
:105A900020E7839FE99BBEE4BCA0E6849FE599A82C
:105AA000000000001FB500200090019002900390BC
:105AB0001B481C4908604FF4803048600021194899
:105AC0008160012101610021017680F82010C1620E
:105AD000154981620021C1600221C161012180F864
